:100000000C9435010C9466010C9466010C94660105
:100010000C9466010C9466010C9466010C946601C4
:100020000C9466010C9466010C9466010C946601B4
:100030000C9466010C9466010C9466010C946601A4
:100040000C9466010C9466010C9466010C94660194
:100050000C9466010C9466010C9466010C94810565
:100060000C9466010C94C9050C94FA050C94660175
:100070000C9466010C9466010C9466010C94660164
:100080000C9466010C9466010C9466010C94660154
:100090000C9466010C9466010C9466010C94660144
:1000A0000C9466010C9466010C9466010C94660134
:1000B0000C9466010C9466010C9466010C94660124
:1000C0000C9466010C9466010C9466010C94660114
:1000D0000C9466010C9466010C9466010C94660104
:1000E0000C9466010C944F020C9426020C943D0271
:1000F0000C9418020C94BB030C944B020C944E030A
:100100000C9453020C942D020C9459020C9422026C
:100110000C9445020C9469060C941E020C94330254
:100120000C9458020C945D020C9441020C94D7027A
:100130000C942B030C942A020C941D030C9437028C
:100140000C946E030C943F03000020002300260053
:1001500029002C002F0032000001000003010601DD
:10016000090100000A0B02090C0D0E080703040127
:10017000000000000000000000000000000000007F
:10018000000000000000000000000000000012114C
:10019000100000000000000000000000000000004F
:1001A00000000000000000000000220025002800E0
:1001B0002B002E003100340002010000050108016F
:1001C0000B0100002100240027002A002D00300030
:1001D000330001010000040107010A0105050505BE
:1001E000070508080808020202020A0A08080404AF
:1001F00004040101010101010101030303030303DD
:100200000303040707070C0C0C0C0C0C0C0C02026B
:10021000020206060606060606060B0B0B0B0B0B68
:100220000B0B0102102020080810204010204080F5
:1002300002010201080402010102040810204080AA
:100240008040201008040201800402018040201038
:100250000804020108040201010204081020408081
:100260000102040810204080690611241FBECFEF50
:10027000D1E2DEBFCDBF00E00CBF12E0A0E0B2E0F3
:10028000EEE1F7E100E00BBF02C007900D92AA3843
:10029000B107D9F723E0AAE8B2E001C01D92AC3360
:1002A000B207E1F711E0C5E3D1E000E006C0219715
:1002B0000109802FFE010E943709C433D10780E075
:1002C0000807A9F70E9496060C947B0B0C9400007B
:1002D000CF93DF9300D00F92CDB7DEB73FB7F8943E
:1002E0008091330390913403A0913503B09136038C
:1002F00026B5A89B05C02F3F19F00196A11DB11D81
:100300003FBFBA2FA92F982F8827820F911DA11DBB
:10031000B11D9C01AD0162E0220F331F441F551F28
:100320006A95D1F7CA01B9010F900F900F900F9005
:10033000DF91CF9108958F929F92AF92BF92CF920B
:10034000DF92EF92FF92CF93DF9300D00F92CDB761
:10035000DEB74B015C010E9468016B017C010E94C9
:100360006801DC01CB018C199D09AE09BF09883EEB
:100370009340A105B10598F321E0821A9108A108E4
:10038000B10888EEC80E83E0D81EE11CF11C811470
:100390009104A104B10419F70F900F900F900F90E2
:1003A000DF91CF91FF90EF90DF90CF90BF90AF9013
:1003B0009F908F900895CF93DF9390E0FC01EE5DC6
:1003C000FD4F249184529E4FFC0184918823D1F0EB
:1003D00090E0880F991FFC01EE53FE4FA591B49158
:1003E000FC01E855FE4FC591D49161110EC09FB735
:1003F000F8948C91E22FE0958E238C932881E22350
:10040000E8839FBFDF91CF9108958FB7F894EC9167
:10041000E22BEC938FBFF6CF8150823108F048C0B9
:10042000E82FF0E08827E358F44F8F4F0C943709FA
:10043000809180008F778093800008958091800064
:100440008F7DF9CF80918000877FF5CF84B58F773E
:1004500084BD089584B58F7DFBCF8091B0008F77E8
:100460008093B00008958091B0008F7DF9CF809186
:1004700090008F77809390000895809190008F7DF9
:10048000F9CF80919000877FF5CF8091A0008F7782
:100490008093A00008958091A0008F7DF9CF809176
:1004A000A000877FF5CF809120018F778093200176
:1004B0000895809120018F7DF9CF80912001877F61
:1004C000F5CF1F93CF93DF93162F282F30E0F9013C
:1004D000EE59FE4F8491F901EE5DFD4FD491F90183
:1004E000E452FE4FC491CC23A1F081110E940C0272
:1004F000EC2FF0E0EE0FFF1FE855FE4FA591B491F1
:100500008FB7F894EC91111108C0D095DE23DC93DD
:100510008FBFDF91CF911F910895DE2BF8CFCF933E
:10052000DF93282F30E0F901EE59FE4F8491F90155
:10053000EE5DFD4FD491F901E452FE4FC491CC23FE
:1005400079F081110E940C02EC2FF0E0EE0FFF1FFA
:10055000E85BFE4FA591B491EC91ED2381E009F4A5
:1005600080E090E0DF91CF910895FC01848DDF0160
:10057000A80FB11DA35ABF4F2C91848D90E0019616
:100580008F739927848FA689B7892C93A089B18905
:100590008C91837080648C93938D848D981306C0A6
:1005A0000288F389E02D80818F7D80830895FC018E
:1005B000818D228D90E0805C9F4F821B91098F730B
:1005C0009927089586E992E00E94D7029C0181E074
:1005D000232B09F480E0089580E090E0892B29F036
:1005E0000E94E20281110E94000080E090E0892BCD
:1005F00049F080E090E0892B29F00E9400008111F1
:100600000E94000080E090E0892B49F080E090E0BB
:10061000892B29F00E94000081110E94000080E0D7
:1006200090E0892B49F080E090E0892B29F00E942E
:10063000000081110C9400000895FC01918D828DC1
:10064000981731F0828DE80FF11D858D90E00895A7
:100650008FEF9FEF0895FC01918D828D981761F0C7
:10066000828DDF01A80FB11D5D968C91928D9F5FE9
:100670009F73928F90E008958FEF9FEF0895FC0194
:10068000538D448D252F30E0842F90E0821B930BF7
:10069000541710F0CF96089501970895CF93DF93E4
:1006A000EC01888D8823B9F0AA89BB89E889F9898A
:1006B0008C9185FD03C0808186FD0DC00FB607FCBF
:1006C000F7CF8C9185FFF2CF808185FFEDCFCE01F2
:1006D0000E94B502E9CFDF91CF910895EF92FF928A
:1006E0000F931F93CF93DF93EC01F62E81E0888F59
:1006F0009B8D8C8D98131AC0E889F989808185FFBC
:1007000015C09FB7F894EE89FF896083E889F9895D
:1007100080818370806480839FBF81E090E0DF915F
:10072000CF911F910F91FF90EF9008950B8D10E0E6
:100730000F5F1F4F0F731127E02E8C8D8E110CC091
:100740000FB607FCFACFE889F989808185FFF5CFDC
:10075000CE010E94B502F1CF8B8DFE01E80FF11D95
:10076000E35AFF4FF0829FB7F8940B8FEA89FB8919
:1007700080818062D0CFCF92DF92EF92FF920F9371
:100780001F93CF93DF937C016A0110E000E00C150A
:100790001D0581F0EB01D701ED91FC910190F081F5
:1007A000E02D6991C7011995892B21F00F5F1F4F2B
:1007B000BE01EDCFC801DF91CF911F910F91FF9046
:1007C000EF90DF90CF900895BC01009761F0FC019D
:1007D00001900020E9F73197AF01481B590B86E9DA
:1007E00092E00C94BB0308950C94E4032F923F9283
:1007F0004F925F926F927F928F929F92AF92BF9231
:10080000CF92DF92EF92FF920F931F93CF93DF93DC
:10081000CDB7DEB7A9970FB6F894DEBF0FBECDBF38
:100820008B019C010AA31BA32CA33DA3142F2AA177
:100830003BA14CA15DA1CA01B9010E94760B88239E
:10084000E1F082E192E0A9960FB6F894DEBF0FBE08
:10085000CDBFDF91CF911F910F91FF90EF90DF906F
:10086000CF90BF90AF909F908F907F906F905F9050
:100870004F903F902F900C94E4038AA19BA1ACA1D0
:10088000BDA1BF778EA39FA3A8A7B9A72FEF3FEF66
:100890004FE75FE7BC01CD010E94760B81110FC0CD
:1008A0002FEF3FEF4FE75FE76EA17FA188A599A5E6
:1008B0000E94AC0918161CF486E192E0C4CF2FEF19
:1008C0003FEF4FE75FE46AA17BA18CA19DA10E944D
:1008D000040B18161CF48AE192E0B5CF2FEF3FEF1E
:1008E0004FE75FEC6AA17BA18CA19DA10E94AC099E
:1008F00087FDF1CF20E030E0A9016AA17BA18CA1A6
:100900009DA10E94AC0987FF0EC06DE286E992E0CE
:100910000E946E038AA19BA1ACA1BDA1B0588AA37D
:100920009BA3ACA3BDA300E060E070E080E09FE388
:10093000101781F020E030E040E251E46EA37FA385
:1009400088A799A76EA17FA188A599A50E94B10942
:100950000F5FEECF2AA13BA14CA15DA16AA37BA3AF
:100960008CA39DA36AA17BA18CA19DA10E9440099B
:100970006B017C016AA3DBA28CA3FDA26AA17BA10F
:100980008CA19DA10E94230A762EA72EB82E092F96
:100990000E94520A9B01AC016AA17BA18CA19DA17E
:1009A0000E943F096B017C0119A24E0191E2890E60
:1009B000911C8EA2692C9AE0292E312C412C512CAD
:1009C000672D7A2D8B2D902FA20191010E94150980
:1009D000872D9A2DAB2DB02F722EA32EB42E052F5E
:1009E000605DF40162934F010A97A105B10540F7DC
:1009F000CF010E94E403112309F46AC06EE286E984
:100A000092E00E946E038AE0282E312C412C512C5A
:100A1000112309F45DC020E030E040E251E4CAA2B5
:100A2000DBA2ECA2FDA26AA17BA18CA19DA10E94E8
:100A3000090B762E872E982E092F6AA37BA38CA3F1
:100A40009DA36AA17BA18CA19DA10E94230A6B0199
:100A5000CB01B0E0A0E08AA39BA3ACA3BDA319A2E5
:100A6000AEA0B62C6AA17BA18CA19DA1A20191018F
:100A70000E9415098AA19BA1ACA1BDA12AA33BA3F9
:100A80004CA35DA3605DF50162935F010A97A10528
:100A9000B10540F7CF010E94E403C601B0E0A0E039
:100AA0008AA39BA3ACA3BDA3B601CD010E94520AA9
:100AB0009B01AC017AA28BA29CA20DA36AA17BA18F
:100AC0008CA19DA10E943F096B017C011150A0CF18
:100AD000A9960FB6F894DEBF0FBECDBFDF91CF91C0
:100AE0001F910F91FF90EF90DF90CF90BF90AF904C
:100AF0009F908F907F906F905F904F903F902F903E
:100B000008951F921FB61F9211242F933F938F9326
:100B10009F93AF93BF938091380390913903A09135
:100B20003A03B0913B033091370323E0230F2D3775
:100B300050F50196A11DB11D209337038093380312
:100B400090933903A0933A03B0933B03809133030E
:100B500090913403A0913503B09136030196A11D05
:100B6000B11D8093330390933403A0933503B09366
:100B70003603BF91AF919F918F913F912F911F901D
:100B80001FBE1F90189526E8230F0296A11DB11DC8
:100B9000D3CF2F932FB72F932BB72F938F939F9351
:100BA000EF93FF93E091A602F091A7028081E0917C
:100BB000AC02F091AD0282FD1BC090818091AF022A
:100BC0008F5F8F732091B002821741F0E091AF02E6
:100BD000F0E0EA56FD4F958F8093AF02FF91EF91C1
:100BE0009F918F912F912BBF2F912FBF2F911895F0
:100BF0008081F4CF1F920F920FB60F9211240BB683
:100C00000F922F933F934F935F936F937F938F93A5
:100C10009F93AF93BF93EF93FF9386E992E00E9477
:100C2000B502FF91EF91BF91AF919F918F917F910D
:100C30006F915F914F913F912F910F900BBE0F904D
:100C40000FBE0F901F901895CF92DF92EF92FF92F8
:100C50000F931F93E82FF92F05C0015011092109A7
:100C6000310961F1908196239417B9F305C00150C1
:100C700011092109310911F1908196239413F7CFBD
:100C8000C12CD12CE12CF12C0AC08FEFC81AD80A44
:100C9000E80AF80A0C151D052E053F0579F080813C
:100CA0008623841791F36C2D7D2D8E2D9F2D1F9102
:100CB0000F91FF90EF90DF90CF90089560E070E08B
:100CC00080E090E01F910F91FF90EF90DF90CF9028
:100CD0000895E6E9F2E01382128288EE93E0A0E044
:100CE000B0E084839583A683B78384E092E0918308
:100CF000808385EC90E09587848784EC90E09787EB
:100D0000868780EC90E0918B808B81EC90E0938BD8
:100D1000828B82EC90E0958B848B86EC90E0978BB5
:100D2000868B118E128E138E148E089500D000D0F3
:100D300000D0CDB7DEB7789484B5826084BD84B529
:100D4000816084BD85B5826085BD85B5816085BDC6
:100D500080916E00816080936E001092810080917E
:100D60008100826080938100809181008160809306
:100D70008100809180008160809380008091B1002B
:100D800084608093B1008091B00081608093B00056
:100D900080919100826080939100809191008160A8
:100DA0008093910080919000816080939000809169
:100DB000A10082608093A1008091A1008160809356
:100DC000A1008091A00081608093A000809121010A
:100DD00082608093210180912101816080932101B3
:100DE0008091200181608093200180917A0084604D
:100DF00080937A0080917A00826080937A0080915B
:100E00007A00816080937A0080917A008068809374
:100E10007A001092C10061E086E10E94DB0160E08F
:100E200088E10E94DB0160E080E20E94DB01E0914A
:100E3000A602F091A70282E08083E091A202F091E5
:100E4000A3021082E091A402F091A5028FEC8083AE
:100E50001092AE02E091AA02F091AB0286E080838C
:100E6000E091A802F091A902808180618083E091E5
:100E7000A802F091A902808188608083E091A80295
:100E8000F091A902808180688083E091A802F091AE
:100E9000A90280818F7D808350E4252E6BE9A62EE8
:100EA000B12C88248394912C80917B00877F809340
:100EB0007B0020927C0080917A00806480937A008D
:100EC00080917A00282F2074322E86FDF9CF8091F0
:100ED0007800909179009C01990F440B550B2E835B
:100EE0003F8348875987CA01B9010E94540A20E00C
:100EF00030E040EA50E46E837F83888799876E8173
:100F00007F81888599850E94090B20E030E048ECBC
:100F100052E46E837F83888799876E817F8188857D
:100F200099850E94090B20E030E040E85AE36E8387
:100F30007F83888799876E817F81888599850E94C4
:100F4000090B6093920270939302809394029093A2
:100F500095028EE192E00E94F403809192029091BA
:100F60009302A0919402B091950242E0BC01CD01A0
:100F70000E94F60385E392E00E94F40368EE73E0BA
:100F800080E090E00E949B0161E086E10E946102A6
:100F900083E290E00197F1F760E086E10E94610250
:100FA000EAE3F2E06491E4EFF1E08491E82FF0E00D
:100FB000EE0FFF1FE85BFE4F8591949100E412E471
:100FC0002FE030E0462F0E942406462F572FBC0109
:100FD000411551056105710529F04F5F5F4F6F4F56
:100FE0007F4F7F70DB01CA01B695A79597958795CE
:100FF0008E839F83A887B987BC01CD010E94540AC4
:1010000028E23EE74CE05DE36E837F838887998723
:101010006E817F81888599850E94090B60938E027D
:1010200070938F02809390029093910289E292E0F4
:101030000E94F40320918E0230918F024091900221
:10104000509191022E833F834887598742E06E81F9
:101050007F81888599850E94F60384E392E00E944F
:10106000E40385E392E00E94F40368EE73E080E01D
:1010700090E00E949B0119821A821B821C821D82B1
:1010800061E08CE10E94DB0160E08CE10E94610282
:1010900062E170E080E090E00E949B0161E08CE101
:1010A0000E946102C5010197F1F760E08CE10E94A6
:1010B000DB0101E117E28CE10E948F02892B09F02C
:1010C00047C001501109B9F787E392E00E94F40389
:1010D00080918A0290918B029C01990F440B550BD1
:1010E0002E833F8348875987CA01B9010E94540A59
:1010F00042E06E837F83888799876E817F818885B0
:1011000099850E94F60385E392E00E94F40368EE5D
:1011100073E080E090E00E949B0180E20E948F02D9
:10112000892B09F47BC082E492E00E94F4038DE4F1
:1011300092E00E94E40384E392E00E94E40368EEFC
:1011400073E080E090E00E949B010E94EC02ACCE34
:1011500001E117E28CE10E948F02019721F4015016
:101160001109C1F7B1CF28E2E22EF12C17E091E18D
:10117000C92E97E2D92E8CE10E948F02892B29F487
:1011800031E0C31AD108B9F79FCF0E9468012B0143
:101190003C0181E1C82E87E2D82E8CE10E948F02AB
:1011A000019729F441E0C41AD108B9F78DCF0E9404
:1011B00068016E837F8388879987DC01CB0184195E
:1011C0009509A609B7098997A105B10578F0E1E06D
:1011D000F0E0EC0FFD1FE30DF11D80819401012E65
:1011E00001C0220F0A94EAF7822B8083111114C0E8
:1011F000339417E051E0E51AF10809F0B8CF89817E
:1012000090E090938B0280938A028B8190E0909380
:101210008D0280938C0258CF1150ECCF82E492E083
:101220000E94F4038FE692E084CFA1E21A2EAA1B5B
:10123000BB1BFD010DC0AA1FBB1FEE1FFF1FA21786
:10124000B307E407F50720F0A21BB30BE40BF50B83
:10125000661F771F881F991F1A9469F7609570950C
:10126000809590959B01AC01BD01CF010895EE0FD3
:10127000FF1F881F8BBF0790F691E02D19945058DF
:10128000BB27AA270E9457090C94CA0A0E94BC0ACD
:1012900038F00E94C30A20F039F49F3F19F426F475
:1012A0000C94B90A0EF4E095E7FB0C94B30AE92F0D
:1012B0000E94DB0A58F3BA17620773078407950781
:1012C00020F079F4A6F50C94FD0A0EF4E0950B2EAF
:1012D000BA2FA02D0B01B90190010C01CA01A00188
:1012E0001124FF27591B99F0593F50F4503E68F1E3
:1012F0001A16F040A22F232F342F4427585FF3CF24
:10130000469537952795A795F0405395C9F77EF4F4
:101310001F16BA0B620B730B840BBAF09150A1F03D
:10132000FF0FBB1F661F771F881FC2F70EC0BA0FC3
:10133000621F731F841F48F4879577956795B7954B
:10134000F7959E3F08F0B0CF9395880F08F0992746
:10135000EE0F9795879508950E948F0A08F481E013
:1013600008950E94C5090C94CA0A0E94C30A58F045
:101370000E94BC0A40F029F45F3F29F00C94B30AA4
:1013800051110C94FE0A0C94B90A0E94DB0A68F30E
:101390009923B1F3552391F3951B550BBB27AA272E
:1013A00062177307840738F09F5F5F4F220F331F68
:1013B000441FAA1FA9F335D00E2E3AF0E0E832D030
:1013C00091505040E695001CCAF72BD0FE2F29D033
:1013D000660F771F881FBB1F261737074807AB0705
:1013E000B0E809F0BB0B802DBF01FF2793585F4F7A
:1013F0003AF09E3F510578F00C94B30A0C94FE0A23
:101400005F3FE4F3983ED4F3869577956795B7955B
:10141000F7959F5FC9F7880F911D9695879597F966
:101420000895E1E0660F771F881FBB1F62177307DF
:101430008407BA0720F0621B730B840BBA0BEE1FF4
:1014400088F7E09508950E94E30A88F09F5798F086
:10145000B92F9927B751B0F0E1F0660F771F881FB9
:10146000991F1AF0BA95C9F714C0B13091F00E94D3
:10147000FD0AB1E008950C94FD0A672F782F8827A4
:10148000B85F39F0B93FCCF3869577956795B395FA
:10149000D9F73EF490958095709561957F4F8F4F69
:1014A0009F4F0895E89409C097FB3EF4909580956E
:1014B000709561957F4F8F4F9F4F9923A9F0F92F1A
:1014C00096E9BB279395F695879577956795B79598
:1014D000F111F8CFFAF4BB0F11F460FF1BC06F5F7E
:1014E0007F4F8F4F9F4F16C0882311F096E911C090
:1014F000772321F09EE8872F762F05C0662371F0B1
:1015000096E8862F70E060E02AF09A95660F771FC4
:10151000881FDAF7880F9695879597F90895990FA0
:101520000008550FAA0BE0E8FEEF16161706E807AD
:10153000F907C0F012161306E407F50798F0621BCE
:10154000730B840B950B39F40A2661F0232B242BA3
:10155000252B21F408950A2609F4A140A6958FEFC2
:10156000811D811D089597F99F6780E870E060E014
:1015700008959FEF80EC089500240A94161617062C
:1015800018060906089500240A9412161306140674
:1015900005060895092E0394000C11F4882352F0D7
:1015A000BB0F40F4BF2B11F460FF04C06F5F7F4F8F
:1015B0008F4F9F4F089557FD9058440F551F59F076
:1015C0005F3F71F04795880F97FB991F61F09F3F30
:1015D00079F087950895121613061406551FF2CF59
:1015E0004695F1DF08C0161617061806991FF1CFA9
:1015F00086957105610508940895E894BB276627D0
:101600007727CB0197F908950E948F0A08F48FEF8E
:1016100008950E941C0B0C94CA0A0E94BC0A38F060
:101620000E94C30A20F0952311F00C94B30A0C9485
:10163000B90A11240C94FE0A0E94DB0A70F3959FEC
:10164000C1F3950F50E0551F629FF001729FBB27B9
:10165000F00DB11D639FAA27F00DB11DAA1F649F55
:101660006627B00DA11D661F829F2227B00DA11D08
:10167000621F739FB00DA11D621F839FA00D611D8E
:10168000221F749F3327A00D611D231F849F600DAF
:10169000211D822F762F6A2F11249F5750409AF0D8
:1016A000F1F088234AF0EE0FFF1FBB1F661F771F64
:1016B000881F91505040A9F79E3F510580F00C942F
:1016C000B30A0C94FE0A5F3FE4F3983ED4F3869588
:1016D00077956795B795F795E7959F5FC1F7FE2BCF
:1016E000880F911D9695879597F908950E948F0A06
:1016F000880B990B0895F894FFCF26022A0218024E
:101700001E02220258022D02330237023D0241021C
:0E17100045024B024F025802530259025D027D
:10171E00000000006E03BB033F034E03D7022B03F2
:10172E001D036E616E00696E66006F76660053650E
:10173E006E736F7220543A200053656E736F722071
:10174E00443A20000D0A0053656E736F7220483ABA
:10175E00200053656E736F7220473A200053696EF6
:10176E002070726573656E636961206465204761E0
:10177E007328474C502F70726F70616E6F2900473F
:10178E0061732064657465637461646F28474C509F
:0A179E002F70726F70616E6F2900EA
:00000001FF
